:020000021000EC
:1080000000400020D10002000D0102000F0102001B
:108010000000000000000000000000000000000060
:10802000000000000000000000000000110102003C
:108030000000000000000000130102001501020012
:108040001701020001AE01008907020017010200BA
:1080500017010200000000004901020017010200A0
:108060001701020065090200110602001701020053
:108070001701020017010200170102001701020098
:108080001701020017010200170102001701020088
:1080900017010200A1FE01007DFE01001701020090
:1080A000170102001701020000000000000000009C
:1080B00000000000000000000000000000000000C0
:1080C00010B5064C2378002B07D1054B002B02D0AE
:1080D000044800E000BF0123237010BDB020002041
:1080E000000000006C780200044B10B5002B03D098
:1080F0000349044800E000BF10BDC0460000000076
:10810000B42000206C780200164B002B00D1144BD9
:108110009D46402292029A1A924600218B460F46B3
:108120001348144A121A0EF07CF90F4B002B00D0A2
:1081300098470E4B002B00D09847002000210400E8
:108140000D000D48002802D00C4800E000BF0AF0E6
:1081500051FB200029000DF027FF0AF035FBC04637
:1081600000000800004000200000000000000000A7
:10817000A8200020D02800200000000000000000FF
:1081800010B50400034B036040300BF071F8200081
:1081900010BDC04648660200F0B57248CDB000F090
:1081A00011FA714B02AA1B7870491370902204A82F
:1081B00052000EF01AF9012701F00CF80023040018
:1081C0000D0001936A480BF0F6FA002848D101F03F
:1081D00001F8019B674E002B23D0001BA94104002E
:1081E0000D1E3FD1F423FF3398423BD8624903A8C8
:1081F00001F034F8C82203A95200604802F096F951
:1082000003A80BF035F83900300002F013FD1E20F2
:1082100000F0F2FD0021300002F00CFD57480BF099
:10822000D1FE300002F03CFD0128C5D100F0D2FFA4
:1082300004000D00300002F033FD0128FAD000F0F8
:10824000C9FF001BA9414D4D00293CD132283AD825
:10825000494902A80EF01BF928000BF0B3FEABE76A
:108260000197AFE70123464A5B42A4185D41002D08
:1082700016D1F9235B009C4212D8424903A800F0B2
:10828000EDFFC82203A952003C4802F04FF903A8B1
:108290000AF0EEFF3900300002F0CCFC5020B7E7C6
:1082A000394903A800F0DAFFC82203A95200334875
:1082B00002F03CF903A80AF0DBFF3900300002F0BD
:1082C000B9FC9720A4E734225242D31780185941B1
:1082D000002903D1302801D82A49BAE728000BF039
:1082E00071FE2A4902A80AF0F7FA00260190019BC4
:1082F000002B27D00024082202AB9B1819590198A3
:108300000EF0D3F8002812D1FA20800000F074FD9E
:1083100004AB1B19596803A800F0A0FF782203A939
:10832000280002F093F903A80AF0A2FF3E00902370
:1083300008345B009C42DED1144900200AF0CCFADC
:108340000190D4E7002E09D1FF2332000421104808
:1083500001F002F8FA20C00000F04EFD002302AA4E
:10836000137079E704210020C476020050660200F1
:10837000DC200020FC22002077720200F421002083
:108380000BFEFFFF31720200D87702003C7802003A
:108390006822002037B5124D280000F05BF8114C20
:1083A0001149220028000DF0E6FF00230F4D009335
:1083B00001331A001121280001F05EFB22000C4954
:1083C00028000DF0D8FF0B4D0F23280003220721B2
:1083D00002F0E4FB2800220007490DF0CCFF37BD76
:1083E0000421002000200020FD830100DC2000206B
:1083F000619A0100CC200020452E0200CA23144AB5
:108400009B0010B5C2501C330400C0180AF030FFA6
:10841000D0239B00E0180AF02BFF20009130FF30A2
:1084200001F01EFB20006930FF3001F019FB200035
:10843000F03001F097FE2000D03002F09BFA2000CF
:10844000643007F0B1FD201DFFF79AFE200010BD3B
:10845000F46B02001423F0B5040093B000931922CA
:108460001821043002F01CFD220025002600643291
:10847000B435132110001092B83607F0A1FD280082
:108480000CF000F900221E2130000BF0A0FD2000AE
:10849000D03002F08FFA2200F03211920621464AC3
:1084A000119801F083FE20000027012369301A0093
:1084B00000971121FF3001F0DFFA20009130009782
:1084C000012302221A21FF3001F0D6FA2000B93030
:1084D0001A2301210222FF3002F028FB300001F0B4
:1084E000D7F8E4225200A050300001F01FFBE62331
:1084F0005B00E0500100E42220005200D130119BCB
:10850000A2580095FF3001F061FD2000E130290004
:108510001C22FF3002F05CFE192320000F93013B68
:108520000E93013B0D93013B0C93013B0B93013BDD
:108530000A93013B0993013B0893013B0793013BDD
:108540000693013B0593013B0493013B0393013BDD
:108550000293013B0193F930013B0822009307216C
:10856000013BFF300BF054FDCA239B00E0182900AB
:1085700003F040FED3239B00E0181D2102F0DCFB3A
:10858000DD239B00E7501098277003210DF02FFC8E
:1085900023002200200009499C33A0321C60116096
:1085A0005760074A80305A610221012207F07EFE9F
:1085B000200013B0F0BDC046706702007B2E0200A1
:1085C000652E02000123F0B506788FB004001E402E
:1085D00000D082E00300D0331800039300F0EEFADD
:1085E00000F0E6F928200DF0CDFE050010300AF06D
:1085F000D0FE6C4B18202B600DF0C4FE07006A4BB8
:108600000460082231000C300C930D960DF009FF28
:108610000CA9381D08220DF0E8FE644BAF607B61A9
:108620001223EE60AB802E626E622900039802F086
:1086300035F9002805D028000AF0D0FD28000DF0FB
:1086400096FE012322785A49134323702300B43342
:10865000180005930CF01CF85649049005980CF08E
:1086600017F800250690642000F0C6FB2F002E00AE
:1086700023006933FF33180007930BF09CF80028A0
:108680002DD1049B002B33D1069B002B30D1DD254F
:1086900049494A48AD0000F08FFC6359002B1CD1BA
:1086A00000F09AF801000AA800F0D8FD0BA80AF023
:1086B00057FCCA239B00E018069B0BAA0AA900934B
:1086C000039B03F0EDFD0BA80AF0D2FD0AA80AF007
:1086D000CFFDCC239B00E35863510FB0F0BD2000C9
:1086E0009130FF300BF067F80028CAD0182EC8DC94
:1086F0002000653039B22AB2FF23FF30013700F085
:108700002BFEFFB2322000F077FB0136052F02D19D
:1087100000270135EDB2049B192E06D0002BA7D0FF
:108720002349059802F0E8FC01E0002BF8D10498F9
:108730000DF01DFE06980DF01AFE1F491F4800F0AF
:108740003BFCCA239B00E3180893DD239B00E358FE
:108750000993002B1ED100F03FF801000AA800F099
:108760007DFD0BA80AF0FCFB01230BAA0AA90093CC
:108770000898039B03F094FD0BA80AF079FD0AA862
:108780000AF076FDCC239B00E3580993DD23099A78
:108790009B00E2502100079AF031089803F07AFF1D
:1087A00066E7C046FD030000ED2E0200AD2E02007C
:1087B000B1720200BC72020000200020001C0020E8
:1087C000BFF34F8F024B034ADA60BFF34F8FFEE7D0
:1087D00000ED00E00400FA05F0B58DB005AF1922F8
:1087E000154938000DF001FE0022144B05245A7182
:1087F00080225205566E01222500019402920393B5
:108800000199300008F03EFA0800029908F0B4F926
:10881000019B03996B430193029B361A6B430293AE
:10882000631E2C1B6C433C19225C1C1ECA54E7D1EE
:1088300008000DB0F0BDC046CC720200FE2700203B
:10884000F0B597B018220021060010A80DF0E9FD40
:10885000132110A80DF013FC032110A80DF0A5FCA6
:108860004C4B1B68002B00D10133DBB202934A4A08
:10887000012300210BA807F087FE484B9E4200D938
:10888000002672B6464B64211D68464B30000793A4
:10889000052408F0FBF960435030281808900A219D
:1088A000300008F0F3F90A2108F0D6FA614350319C
:1088B0006918099130000A2108F0CEFA802361433B
:1088C0000024503169189B010A910193029B002BEF
:1088D0005DD0002500272E1F07AB9B190593032CA5
:1088E00003D1802300249B01019307AB5B592E4ADF
:1088F00003936300D3180493002319000620584300
:10890000049A16187678B4466246039EB25C102626
:108910009446049A105C62460641164202D0012039
:10892000984001430133092BE8D1C9431F4B059AF5
:10893000090119401268039B934225D1312F23DC92
:1089400000210BA80DF0EAFCFA23159A1199DB001F
:10895000106801421BD0013B002BF9D1019B01346F
:108960005B000193FA230137E4B25B009F42B6D16A
:108970000435102DAED1074B1B68002BA6D0029FEB
:10898000013FFBB20293A1E7019B1943D9E7FFF72F
:1089900017FFC04680240020F0FF0000E70300001E
:1089A000042000201B730200E5720200F01F00008B
:1089B000F8B50023124C23600AF0F3FA002808D01F
:1089C000042120000AF0E9FA002801D00D4B2360B1
:1089D000F8BD0122A12704250B4B0C491A6022681F
:1089E000FF0048604E68002EFCD0DE591202013DA7
:1089F0003243002DF5D1226001225A60E8E7C046DB
:108A00007C240020ED5EBC0B00D00040FCD0004078
:108A1000F0B585B01F000AAB1B8806000291150057
:108A20000393002F1BD028200DF0ACFC6B460400F4
:108A30001989039BAAB200933B000AF0B9FB336883
:108A400021005B6830009847002806D020000AF01B
:108A5000C5FB20000DF08BFC024805B0F0BD0248BC
:108A6000FBE7C04616FCFFFF17FCFFFF0B4B70B582
:108A70001C68002C10D0656D00F0ACFBA36C0029C5
:108A800001D1834206D820000AF0BEFA0449200032
:108A90000AF0A8FA2C00ECE770BDC046882400203C
:108AA000A8240020F0B593B007932A4B04AC1E68AD
:108AB000049005910692002E4AD0274B258867889E
:108AC0001C6800230293002C2ED0636D234803936F
:108AD000A36C9AB2A36C1B0C99B2854214D12048A6
:108AE000824211D1002B01D0B9420BD1029B002B45
:108AF00008D120000AF088FA1A4920000AF072FA18
:108B000001230293039CDEE7002A01D09542F9D1AC
:108B1000002B01D0B942F5D120000AF075FA1149B5
:108B200020000AF05FFAEDE70F4BEB18012B0FD98D
:108B300010233A00009329000C4B08A80AF038FBD8
:108B4000336808A99B683000984708A80AF046FBDC
:108B500013B0F0BD84240020B4240020FE030000E4
:108B6000FF030000A824002002FCFFFFA58A0100EB
:108B700010B572B60B4B1C68002C08D020000AF010
:108B800043FA0023E364084B2000E36310BD62B6A0
:108B90005C200DF0F7FB5C22002104000DF041FC8D
:108BA000EFE7C046AC24002000400020024B1878BC
:108BB000012318407047C04604280020F7B506007E
:108BC000FFF7F4FF051E33D11A4C2660FFF7D0FFE4
:108BD000194B1A4918600AF005FAFFF7C9FF184B3C
:108BE0001860184B4363184B8363206800280ED02D
:108BF000C027164E2A00330015490097FFF708FFDB
:108C0000009733002A0013492068FFF701FF0C206A
:108C10000DF0B8FB0023838083710F4B03600F4B73
:108C2000836000F0EFFA01230D4A11780B431370B3
:108C3000F7BDC04684240020B8240020A8240020CA
:108C4000B0240020FC3F0020CF300200A58A0100A4
:108C5000FF030000FE030000906702006D8A010020
:108C600004280020F7B506000D0017000193002826
:108C700002D100242000FEBD0029FAD0FFF778FFC2
:108C8000041EF6D0074B019A436306604560876077
:108C9000054B002A00D0054BA363054920000AF0CC
:108CA000A1F9E7E7FC3F002099300200B73002004D
:108CB000A8240020024B1868434258417047C04620
:108CC000A8240020002310B504499C006258002A03
:108CD00001D00133F9E76050100010BD902400204E
:108CE000002310B5044A99008C58844201D0013306
:108CF000F9E70020885010BD9024002010B5002412
:108D0000084BA200D058002802D003685B6898473F
:108D10000134062CF4D1044B1B68002B00D120BF7A
:108D200010BDC04690240020A8240020F8B5FFF70D
:108D30003DFF00281CD02A4D2C68E36CDA0718D5BB
:108D400002273B43E364274B1E680423F26C300088
:108D50001343F364636BF3630AF07CF93000716CC6
:108D600004F08DF82868C36C3B4201D004F0C1F8D0
:108D7000F8BD1D4F1D4E3A683168002A1ED129608A
:108D80002A68914208D11B0706D52C60FFF7B6FF71
:108D90003B68002BFAD02B6029688C42E8D03368FE
:108DA000994214D1124B4B63124B8B6320000AF093
:108DB00051F92968626C4B6C20000DE0206DB842BF
:108DC00003D1606D002800D002002A60D8E79C42E1
:108DD000ECD1002210004B6C04F010F8C8E7C0463C
:108DE000B82400208C240020A8240020B0240020D7
:108DF000FC3F0020CF30020070B50500FFF7D6FE23
:108E0000002803D128000DF0C9F970BD0C4B1C6877
:108E1000E36CDB0706D5FFF7ABFE0A4B18600028B2
:108E200000D0040000F0D6F92D18A56420000AF047
:108E3000EBF8054920000AF0D5F8FFF777FFE4E7E3
:108E4000B82400208C24002088240020F0B51E4B7C
:108E50001E4F1C683B6885B006000391002B30D084
:108E6000FFF7A4FE00282CD0E36CDB070ED5FFF73C
:108E70007FFE174B051E186008D00AF0C5F815498B
:108E800028000AF0AFF82C00FFF750FF039B2000EA
:108E90001B043343A3640AF0B7F820000E490AF01C
:108EA000A1F80E4B0024F318012B07D9C02300931F
:108EB000039A0B4B31003868FFF7AAFD200005B07C
:108EC000F0BD084CFAE7C046B824002084240020F6
:108ED0008C240020A8240020B424002002FCFFFFE2
:108EE000A58A010016FCFFFF10B5FFF75FFE002802
:108EF00009D0054C20680AF087F8044920680AF078
:108F000071F8FFF713FF10BDB8240020AC24002037
:108F1000F7B507000D0000282ED0FFF747FE002808
:108F20002CD00724164E3068C36C1C4007D0154A5D
:108F3000290038000AF07FF800242000FEBD03F06D
:108F4000C0FF02213268D36C1940019103D0032184
:108F50008B43D364F1E701242343D3642800B8474B
:108F60003268D36C1900A143D164019C5B07E4D53E
:108F700028000AF098F8E0E7034CDEE7034CDCE752
:108F8000B8240020A730020017FCFFFF16FCFFFFEB
:108F9000020010B5014B12CB12C210BDBC24002040
:108FA000034B1A68034B1A607E225A607047C04612
:108FB00004200020BC24002070B5114E3278022A13
:108FC0001AD081421AD90C1A072C17D90D00032385
:108FD00005432B4012D172B60A4DD2005051AA1847
:108FE00051608022A40812061443046032780132D2
:108FF000327062B6180070BD0348FCE70348FAE718
:1090000006280020C424002013FCFFFF17FCFFFFEC
:1090100070B5134C06002378124D002B0CD1124969
:1090200012482B70FFF7C8FF114B984202D11E2047
:10903000FFF706FC0123237000242B78A34209DDEF
:109040000C49E300C91830000AF047F8002805D1A0
:109050000134F2E71420FFF7F3FB002070BDC04697
:10906000052800200628002000380020D0280020F5
:1090700017FCFFFFC424002070B5002819D0104B46
:1090800010491C7800239C4216DDDA0055588542B1
:1090900010D28A18526882420CD9041F2368002B10
:1090A00002DC1E20FFF7CCFB802322681B06134343
:1090B000236070BD0133E6E71E20FFF7C1FBF8E730
:1090C00006280020C424002070B5051E14DD0B4EB8
:1090D0000B4C3368002B02D020680CF0EAFEFA211A
:1090E00020680024074B89008361C46269433560AE
:1090F0000CF0E7FE200070BD0348FCE7D4240020FC
:1091000004250020B191010017FCFFFFF8B5114FB5
:1091100006003D68002D0AD130200DF033F904001F
:1091200006F0A8FF0C4BA5612360E5623C600B4D87
:109130002B68002B09D110200DF024F904000CF04D
:109140000CFF20002C600CF0E2FE3000FFF7BCFFAB
:10915000F8BDC046042500209C6F020000250020B9
:10916000014B18687047C046D424002070B50D4CE0
:109170002368002B03D00C4B1B68002B02D1062068
:10918000FFF7C4FF20680CF0D9FE02000749C3179F
:109190000D684E685219734120680A604B600CF0EC
:1091A000D3FE70BD0025002004250020A82000204B
:1091B00010B5FFF7DBFF0024054BA200D0580028B4
:1091C00002D003681B68984701340A2CF4D110BD03
:1091D000D824002010B5FFF7C9FFFA22034B9200F4
:1091E00018685968002307F077FE10BDA8200020FA
:1091F00010B5FFF7BBFF024B1868596810BDC04699
:10920000A82000200B4B10B51B680400002B03D0D6
:10921000094B1B68002B02D10620FFF777FF0023C4
:10922000064A99008858002801D00133F9E78C508C
:1092300010BDC0460025002004250020D8240020B1
:10924000002310B5044A99008C58844201D00133A0
:10925000F9E70020885010BDD824002010B5040084
:10926000002902D00B78002B03D1034B2360200090
:1092700010BD0AF004F8FAE7A0670200F8B5040090
:109280000E00150000290AD00B78002B07D0002A09
:1092900005D0080097B20DF012F9874203D90B4BA5
:1092A00023602000F8BD681DFFF7B2FE20600AF0C1
:1092B0008AF923682A005F8023683100181D0DF0A9
:1092C00094F823685D1900232B71EAE7A067020078
:1092D000014B03607047C046A067020010B5054807
:1092E000054C20600AF072F9044A054920000DF08F
:1092F00042F810BDA06702000825002000200020D1
:1093000071320200084B73B51C680500002C0AD0AE
:10931000010026680831082268460DF066F80CCD79
:1093200031682000884773BD0C250020014B036085
:109330007047C046A867020010B50400002903D199
:10934000044B0360200010BD016008000AF03EF9E4
:10935000F8E7C046A867020030B500684488A1421B
:109360000CDA8588AA4209DA002907DB002A05DB26
:109370005443401800198371002030BD0048FCE7B9
:1093800017FCFFFFF0B5070085B00E001D00002997
:1093900021DD002A1FDD002B1DD0046863880393A4
:1093A0008B4200DD0391A3880293934200DD029279
:1093B000002306340193019B029A93420EDA29009E
:1093C0002000039A0DF011F83B68AD195B88E41892
:1093D000019B0133EEE7024805B0F0BD0020FBE73A
:1093E00017FCFFFFF8B504000D0016001F00002950
:1093F00001DB002A02DA0E4B2360F8BD100048435F
:109400000630FFF705FE20600AF0DDF823685D8076
:1094100023689E80002F06D03B00320029002000E8
:10942000FFF7B0FFE9E720000AF004F8E5E7C046DF
:10943000A8670200F7B506000D1E03D1244B036098
:109440003000FEBD00200F000400010001903B78B9
:10945000002B1AD03022524294469C446246092A7C
:1094600011D90A2B0AD1019B241801330193A1427F
:1094700000DA2100002004000137E8E70028FBD0D3
:1094800001340020F8E70120F6E70127019A09B22C
:1094900012B230007F42FFF7A5FF39000A2033687F
:1094A0009A1D2C78002CCBD02300303B092B08D8F8
:1094B000FB43DB173B4043431B19303B1F00013587
:1094C000EFE7002FFBDB177001320F00F7E7C04614
:1094D000A8670200F0B5040089B006A80E00029249
:1094E0001D00FFF755FD236802995A88914235DA2D
:1094F0009B889D4232DA1F2E30D9079B01939E42F2
:109500002CDC0523002273430393069B0493039BE7
:1095100004999B18A03BCB5C00210593AE18029BDD
:10952000CF1823685888019087420EDA9888B04295
:109530000BDDDB1910270F41019870431B180598AC
:109540000740781E87417F429F7101310529E6D18E
:109550000132052ADBD1002009B0F0BD0048FBE74D
:1095600017FCFFFFF7B50468070063880E1E019320
:109570001EDD994218DA0023063400933B68009AF6
:109580009B889A4212DA019BA1199D1B2A00200098
:109590000CF02BFF6019310009F02FFF3B685B884E
:1095A000E418009B0133E8E709F044FF002000E0E5
:1095B0000048FEBD17FCFFFF10B50548054C2060B4
:1095C0000AF004F8044A054920000CF0D4FE10BD4E
:1095D000A86702001025002000200020ED330200C3
:1095E00010B5054C0121200009F0E4FF034A0449AD
:1095F00020000CF0C0FE10BD14250020002000202B
:10960000713502000388074A10B50120934208D043
:10961000834202D00020DB0703D41E20FFF710F99D
:10962000002010BDFFFF00000048704716FCFFFF40
:1096300010B53220FFF704F9004810BD16FCFFFFFB
:1096400010B5124C00230834828004604162022469
:109650001422010083718472036383860281363190
:109660000A78C360A243F1342240036143618361FD
:10967000C36103620A70020040321370021DD38777
:10968000013343878387C38710BDC046C867020084
:10969000F0B5544F97B03B6806000593002B00D0FF
:1096A0008BE006AC0B331C222121200001F076FA5E
:1096B0000EAD0B231D2222210AA801F06FFA0B2305
:1096C0001B222321280001F069FA08200CF05AFE21
:1096D0000122059B110004900BF005FB3A2130009C
:1096E0000BF05BF800281DD0A38812ADAB80A379E6
:1096F0005C20AB713C4B1293A3681493237B2B73B8
:10970000637B6B73A37BAB730CF03CFE0423019370
:10971000363300932A00049B3100040002F05CF809
:109720003C604AE0322130000BF065F800281CD084
:10973000A38812ADAB80A3795C20AB712A4B129346
:10974000A3681493237B2B73637B6B73A37BAB7333
:109750000CF018FE042301932E3300932A00049B7F
:109760003100040002F0D6F9DAE73C2130000AF0BB
:10977000FDFF00282CD0AB8812ACA380AB79A420CD
:10978000A371194B1293AB6814932B7B23736B7BE0
:109790006373AB7BA3730CF0F5FD05230500029307
:1097A000013B0193383300932200049B310001F008
:1097B00031FF0E4B3D6044351D600C4B094C186861
:1097C000002802D021680AF064F8206817B0F0BDC4
:1097D00044200CF0D7FD042204990400FFF730FF69
:1097E0009EE7C04618250020B86702001C2500200F
:1097F000F0B56149C56885B08D4254DA0300022294
:1098000036331B78134059D104698C4264DA020064
:1098100036321278520768D4426901920200019EE2
:1098200040328E426FDA010036310978090774D46C
:10983000002B7DD113780293002B16D00600012750
:10984000011DCB8F363601339BB2CB87039636781A
:10985000BC46374000D188E01D2B06D963469E43A5
:10986000039B1E700023CB87137009F0F2FE434A5E
:109870000723904276D94249043B8D4272DBC822CD
:109880000133920095426DDC023B8C426ADB013B66
:10989000944267DC01980433884263DB01339042D1
:1098A00060DC00235EE0C822002352009542ABDD5D
:1098B000030036331A7800239207A5D4012306004B
:1098C0001F00363632785408A7433C0002279C40DC
:1098D000BA432243327097E7C822520094429BDD7C
:1098E000020036321278520796D40600012236362C
:1098F00033789F08BA439700042293431A003A43EF
:109900003270012388E7C821019E49008E428FDD15
:1099100001003631097809078AD401000126363161
:109920000B78DF08BE430827F600BB4333430B70B8
:109930001378032B00D97DE70133DBB21370012BC1
:1099400003D10021031DD98774E7042B00D071E7F0
:10995000020036321178033B0B43137000230430AE
:10996000C3870B33180005B0F0BD092B00D87CE786
:10997000029BCF87013B77E770FEFFFFFF7002007D
:10998000E0FCFFFF70B5C369C1681A68451D8AB065
:109990000400EB7F114255D0002B58D1EB7F082BF0
:1099A0000DD90122A379134209D11343A371A188D0
:1099B000130006A809F0F7FCFFF70CFC2062EB7F10
:1099C000012B23D80123A2791A421FD00025A18898
:1099D000A571022202A809F0E6FCA31DDE7F012E7C
:1099E00014D1FFF7F7FB2B00226A801A99410090EF
:1099F0000191019BA188AB4203D1174B009A9A4277
:109A000027D90123042206A809F0CDFC0322A3795B
:109A10001340012B14D1FFF7DDFB0023226A801ACB
:109A20009941994202D10D4B984209D90223A2795A
:109A3000A1881343A3710522012306A809F0B3FCF2
:109A40000AB070BD0B2BA9D80133EB77A6E7013B19
:109A5000FBE733000322D6E7E7030000DB05000045
:109A600010B50400034B08330360FFF7E9FB200047
:109A700010BDC046FC670200F0B5070000250E00CF
:109A8000040085B002930AAB1B78083703930F4B91
:109A900001920833036085808571290018223800FF
:109AA0000CF0BFFC039A310038000CF0EDFA019B7A
:109AB000029AA380A31DE671DA77631D2562200058
:109AC000DD77FFF79FFB200005B0F0BDFC670200CB
:109AD0000048704716FCFFFF10B53320FEF7B0FEBC
:109AE000004810BD16FCFFFF002310B50400838062
:109AF00083710D482164083020608020C000A0617F
:109B0000E0612062E3602000236163616362A3621D
:109B1000E36223636363A363E3636364110009F097
:109B200090FE200010BDC04614680200F0B5534FEF
:109B300097B03B6806000593002B00D08BE00B33F9
:109B40001C22212106A80AAC01F028F80EAD0B2337
:109B50001D222221200001F021F80B231B222321AA
:109B6000280001F01BF808200CF00CFC0122059BDA
:109B7000110004900BF0B7F81D2130000AF024FE0C
:109B800000281DD0A38812ADAB80A3796020AB71F3
:109B90003B4B1293A3681493237B2B73637B6B73F0
:109BA000A37BAB730CF0EEFB0523019318330093FA
:109BB0002A00049B3100040001F0E2FE3C604AE010
:109BC0003C2130000AF02EFE00281CD0A38812ADE4
:109BD000AB80A3796020AB71294B1293A3681493D7
:109BE000237B2B73637B6B73A37BAB730CF0CAFB80
:109BF00005230193373300932A00049B31000400AE
:109C000002F02AF8DAE73C2130000AF0AFFD002824
:109C10002AD0AB8812ACA380AB79A420A371184BD7
:109C20001293AB6814932B7B23736B7B6373AB7BB7
:109C3000A3730CF0A7FB052305000293013B0193DE
:109C4000383300932200049B310001F0E3FC0D4BFC
:109C50001D6044353D600B4B084A1B681068002BA3
:109C600000D0436417B0F0BD48200CF08BFB0522F8
:109C700004990400FFF738FFA0E7C0461C25002028
:109C8000B86702001825002082B0F0B50400EDB0DE
:109C90006420739372920CF081FA052210A81100CF
:109CA00009F0D1FB974911A8FFF7C4FB002221ABB3
:109CB0006CA91A605A609A600C339942F9D1192242
:109CC000002113A80CF0ADFBA0680AF079F900267A
:109CD0000B90FF21A06800F047FD8B4FA06800F0BB
:109CE0005DFB07960996884B9F4203D0874B9F42A6
:109CF00000DBFDE0A0680AF065F9A56884491AA8B0
:109D0000FFF7ACFA78221AA9280000F075FC1AA80F
:109D100009F0AEFA00267C4F0322099B60680133EC
:109D20001A40099209F02DFD0500606809F030FD28
:109D30000022784B05929D4210DB013205922A00E9
:109D4000C8320BDBAA22042192000591954205DC62
:109D500002220592C82D01DD0132059200220692F1
:109D6000984210DB012306930300C8330BDBAA23C0
:109D700004329B000692984205DC02230693C82811
:109D800001DD0133069310A809F054FB002513AB45
:109D9000EB5C012B08D160496B00CA185278C95C92
:109DA00010A8FF23FFF7D8FA0135192DEFD16B4624
:109DB00018229A5E6B4610A81421595E099BFFF782
:109DC000CBFA002F01DB0F2E07D90023A0680093E8
:109DD00074301A0010A909F043FB01230893089B73
:109DE00005995A004C4B9B189A1E12788A4226D12C
:109DF000013B1B78069A934221D1089A6CAB9B18C1
:109E0000663BFF3B0A931B78012B18D00C23079A63
:109E1000216853431D0000220CA809F03CFD21AA33
:109E20002B0094460CAA634423CA23C301220A9B35
:109E300001361A70079BF6B20133DBB20793089B19
:109E4000013308931A2BCAD164200CF0A7F9079BA1
:109E5000643F3FB2182B00D845E71A0021A91AA881
:109E600009F027FF6A461DAB23CB23C21B68136092
:109E70001A991B9A1C9B206809F0F5FCE568002DD7
:109E80000CD0264912A8FFF7E9F91C231AAA12A937
:109E900028000AF036FC12A809F0EAF9A0680AF0D6
:109EA00091F811A912A8A56809F0ADFA00221C4B7F
:109EB000009212A901932800130000F00DFB12A8D4
:109EC00009F094FAFA2080000CF068F9A0680AF012
:109ED00079F80B99A06800F047FC11A809F086FA00
:109EE00010A809F083FA6DB0F0BC08BC02B01847A6
:109EF000002F02D00F2E00D00EE7A06800F04EFA1F
:109F00000AE7C046FB7402008C3C0000D18AFFFFC8
:109F10004075020058FDFFFF607502005575020094
:109F2000DC050000F0B587B001930EAB1B8806007E
:109F300003930D9B0D000093019B02920C9F002B3D
:109F40003CD0002F02D1009BDB0737D528200CF036
:109F500019FA0400103009F01CFA029B1820258021
:109F600063800CF00FFA0500009B08220593019B0B
:109F7000002103600C3004970CF053FA082204A966
:109F8000281D0CF032FA0E4B02226B61002303995C
:109F9000E3602362636233680A43A560A2805B6862
:109FA000210030009847002806D0200009F016F95B
:109FB00020000CF0DCF9034807B0F0BD0248FBE7D5
:109FC000D738020016FCFFFF17FCFFFF70B58CB0FE
:109FD0008360109B01604260C36004001849180050
:109FE0000AF056FB051E14D001001C22103105A8F2
:109FF0000CF0FBF96A4608AB43CB43C21B68136005
:10A0000020680599069A079B09F02DFC28000CF0A2
:10A01000AEF90C4B186800280ED00B4A05AB059220
:10A0200000220692C03202926A4622CB22C223004C
:10A0300003220521FFF776FF20000CB070BDC0465B
:10A04000557502000C250020899C0100F0B5040024
:10A0500085B0637A9C46002B04D1200009F047FEAE
:10A0600005B0F0BDA37A266F01931023019AF35631
:10A0700000259B1801229A402900F368039202935D
:10A08000029BAB4231DDB368019A6B439B18726946
:10A090005B00E77AD3181A785878E379012F14D146
:10A0A0005F1E3F1A10003A005B004343606F821846
:10A0B000D3189B79634500DD6346627B1A4202D068
:10A0C0000123AB4019430135DAE7022F05D15F1EAA
:10A0D000BA1A277A013F381AE6E7032FE4D1277A24
:10A0E000013FBF1A02003800DEE71123C943F356CF
:10A0F000606C994023691940039B19430CF00EF9D9
:10A10000A27B072AACD8637B0C495B006373531CAA
:10A11000DBB290004158A373022A03D808000CF068
:10A1200032F896E7064B2000236300236363054B58
:10A13000E462236414300BF0C4FE91E7406802002F
:10A140004DA00100D93C020010B50400044B03608F
:10A150000BF0AFFE200005F0A3FF200010BDC046AD
:10A160009C6F020010B504000E4B08330360FFF72C
:10A1700067F82000743009F039F92000603009F0E8
:10A1800035F92000583009F073F82000503009F0FC
:10A190006FF82000044B14306361FFF7D5FF2000F7
:10A1A00010BDC04660680200B06F0200F8B500251F
:10A1B0000400324B8580083303608571143016002B
:10A1C0000F0005F057FF20002D4BE5626361256409
:10A1D0005030FFF77DF820005830FFF779F8200065
:10A1E0006030FFF7A3F820000423F25E336826678F
:10A1F000590009B2743009F026F93368226FE3710F
:10A2000073680126237210236581A7802561D356C8
:10A2100091685918994204DD300098400133054394
:10A22000F8E711230120D356D1685918994206DD69
:10A2300002009A402669013332432261F6E7142076
:10A240000CF0A0F8226900212A430123060006F041
:10A250009BF9FF23220063720133A381002348325C
:10A260006664A37320001370A366FEF7CBFF01237F
:10A27000A27920001343A371F8BDC04660680200B4
:10A28000B06F0200F0B5437A85B00400002B04D112
:10A29000200009F02CFD05B0F0BD0122837A1100E9
:10A2A0009C461023066F0025F356039263449940A1
:10A2B00002912900F3680193019BAB422CDDB36846
:10A2C00072696B4363445B00E77AD3181A78587855
:10A2D000E379012F10D15F1E3F1A10003A005B0096
:10A2E0004343606F8218D3189B79002B02D0039BE5
:10A2F000AB4019430135DFE7022F05D15F1EBA1AC3
:10A30000277A013F381AEAE7032FE8D1277A013F7D
:10A31000BF1A02003800E2E71123C943F356606C0C
:10A32000994023691940029B19430BF0F7FF667AA5
:10A33000B31EDBB2FC2B14D8FEF712FF0B4B05004B
:10A34000236300230A4863630A4BFF21E46223640A
:10A35000704306F09BFC29004143200014300BF0B1
:10A36000B0FD637A012B00D995E791E7EF3C02003D
:10A37000B6030000D93C02001FB5012381881A00F2
:10A38000684609F010F8012303491A00684609F0ED
:10A390000AF805B000BDC046FE0300001FB503006B
:10A3A00048331A780400002A0DD000221A700123C5
:10A3B00081881A00684608F0F6FF012304491A0054
:10A3C000684608F0F0FF2000743009F033F81FBD34
:10A3D000FF03000010B548300378002B06D0037847
:10A3E000012B03D00121024808F04DFE10BDC046EC
:10A3F000FF03000010B501210400062008F043FE11
:10A40000064B984208D148342378002B04D0237897
:10A41000012B01D020BFF7E710BDC04616FCFFFF9F
:10A4200070B50600141E19DB050048352B78002B8B
:10A4300002D02B78012B13D1002330001A00743086
:10A44000FFF748F8002C07D033004A331C80002463
:10A4500007234C3634802B70200070BD014CFBE785
:10A46000014CF9E717FCFFFF12FCFFFFF8B51700DE
:10A470000A68050052880B00012A09D10021180042
:10A4800008F07AFF002201002800FFF7C9FFF8BD9D
:10A49000002F19DD060048363278002A02D03278C3
:10A4A000012A13D12A00002428005C3219001480EC
:10A4B000583008F03CFF2B004A331F8003234C35F3
:10A4C0002C8020003370E2E70148E0E70148DEE736
:10A4D00017FCFFFF12FCFFFF73B5079C0500002C63
:10A4E0001CDB060048363078002802D0307801287E
:10A4F00016D106981BB2C0B20090280012B2743078
:10A5000008F0AEFF002C07D02B004A331C8000243B
:10A5100007234C352C803370200076BD014CFBE7BF
:10A52000014CF9E717FCFFFF12FCFFFFF7B5050030
:10A530000E00171E26DDFFF74DFF2B0048331C7859
:10A54000E4B2002C20D133685B88012B09D12100B3
:10A55000300008F011FF220001002800FFF760FF23
:10A56000FEBD310001A808F0DAFE3A0001A928007A
:10A57000FFF77CFF01A808F07BFE2800FFF73AFFF9
:10A580002000EDE70148EBE70148E9E717FCFFFF92
:10A5900011FCFFFFF0B587B00D9C06000F00029282
:10A5A0000393002C20DBFFF715FF330048331D78A1
:10A5B000EDB2002D1AD1390005A808F024FF0C9B3C
:10A5C00001940093029A039B05A93000FFF784FFD2
:10A5D00005A808F00BFF002C03D03000FFF70AFF9E
:10A5E0002C00200007B0F0BD014CFAE7014CF8E761
:10A5F00017FCFFFF11FCFFFFF8B50400171E1DDD5F
:10A60000060048363378002B02D03378012B17D15F
:10A610002200E3795632013B13702300002520000D
:10A6200054331D80503008F082FE23004A331F80CF
:10A63000022328004C3425803370F8BD0148FCE724
:10A640000148FAE717FCFFFF12FCFFFFF7B5050012
:10A650000F00161E18DDFFF7BDFE2B0048331C78D7
:10A66000E4B2002C12D1390001A808F058FE3200E3
:10A6700001A92800FFF7C0FF01A808F0F9FD280094
:10A68000FFF7B8FE2000FEBD0148FCE70148FAE7ED
:10A6900017FCFFFF11FCFFFFF8B50400171E2DDDAE
:10A6A000060048363278002A02D03278012A27D1B3
:10A6B0005D42069BFF331FD16B1D22001BB264322B
:10A6C00013802300200066331D70603008F0A3FE65
:10A6D000230000226C331A70954200D03D00230005
:10A6E0004A331D80079B00205A1E9341013F4C3482
:10A6F000053327803370F8BD069BDEE70148FAE793
:10A700000148F8E717FCFFFF12FCFFFFF0B587B028
:10A7100005000F00161E03931EDDFFF75BFE2B00E6
:10A7200048331C78E4B2002C18D1390005A808F091
:10A730006AFE0D9B320001930C9B05A90093280033
:10A74000039BFFF7A9FF05A808F050FE2800FFF7BC
:10A7500051FE200007B0F0BD0148FBE70148F9E7D2
:10A7600017FCFFFF11FCFFFFFF2902D841720020F8
:10A7700070470148FCE7C04617FCFFFF13B5040013
:10A7800004A80078009020000BF009FB002801D1FC
:10A79000207516BD0048FCE70EFCFFFF13B5040052
:10A7A00004A80078009020000BF0E1FA002801D105
:10A7B000207516BD0048FCE70EFCFFFF7FB50D00BD
:10A7C00011000F226A4404001E1E117016D0089B4F
:10A7D000002B13DD012329000093FFF7DFFF002882
:10A7E00002D0074804B070BD0090089B32002900D9
:10A7F0002000FFF7C3FF0028F4D0F2E70148F1E79B
:10A800000EFCFFFF17FCFFFFF7B507000D1E3FD042
:10A810000023022604690193002C35D0AA88A3885E
:10A820005340334204D1324204D1AB88334226D064
:10A83000646AF1E7A968A0680AF03AFA0028F4D03F
:10A840002B88002B02D022889A42F1D16B88002BF2
:10A8500002D062889A42EBD1EB68E268934201D061
:10A86000002BE5D17B68002B01D020009847A288FF
:10A87000084B1343A380019B01330193D8E7A368DE
:10A88000AA689342D4D1DBE7019B2000002B00DCB7
:10A890000148FEBD0080FFFF17FCFFFFF0B506007A
:10A8A00085B00D1E5DD001270469002C26D0022141
:10A8B000AA8800230A4202D0A3885B083B40226892
:10A8C00029688A4214D1A068A968002B0ED00AF02A
:10A8D000EFF900280CD0EB68E268934208D1A38816
:10A8E0001AB2002A06DB204805B0F0BD8842F2D03B
:10A8F000646ADAE75B045B0CA380F4E730692A88BA
:10A90000002807D1356101231849684608F04BFD3E
:10A910000020E9E7010003001C88944206D25C6A2B
:10A920001900002C0DD02300F6E723001C88944268
:10A9300007D15F886C88A74203D85C6A1900002C95
:10A94000F3D1884209D10B889A4204D305D14888B3
:10A950006B88984201D96962D4E74B6A6B624D6299
:10A96000D1E70348C0E7C04616FCFFFFFD03000027
:10A9700017FCFFFF064B10B51A00040008322C33F9
:10A98000026083600830FEF7ABF9200010BDC046BE
:10A990007868020008B4024B9C46083808BC60473F
:10A9A00075A9010008B4024B9C46083808BC6047F2
:10A9B000374102000C4A002311002C32083110B537
:10A9C0004360838183738260036143618361C383D6
:10A9D000016004000830FEF775F9044B1A68002A7C
:10A9E00000D11C60200010BD786802000C250020FA
:10A9F000F7B50E00012504690192002C36D023889A
:10AA000032889A4201D0002B23D1638872889A42FF
:10AA100001D0002B1DD1FEF7C9F80123002806D074
:10AA2000C022A3881340C03B5A425341DBB2019A73
:10AA3000934219D1A7883BB2002B15DB10223100BD
:10AA4000A0180BF0D2FC40231F4204D0200009F0D4
:10AA50007BFB646AD1E7FEF7A9F80028F6D0210055
:10AA60000348FEF755FAF4E70025F2E72800FEBD9B
:10AA70004941020008B4024B9C46083808BC6047B4
:10AA8000D1420200F0B587B001930EAB1B880600DF
:10AA900003930D9B0D000093019B02920C9F002BD2
:10AAA0003CD0002F02D1009BDB0737D528200BF0CC
:10AAB00069FC0400103008F06CFC029B1820258013
:10AAC00063800BF05FFC0500009B08220593019B4F
:10AAD000002103600C3004970BF0A3FC082204A9AA
:10AAE000281D0BF082FC0E4B02226B6100230399A0
:10AAF000E3602362636233680A43A560A2805B68F7
:10AB0000210030009847002806D0200008F066FB9E
:10AB100020000BF02CFC034807B0F0BD0248FBE717
:10AB20000B43020016FCFFFF17FCFFFFF0B504000B
:10AB3000160000258380164A164B8571026021811C
:10AB400046810573186889B08C46A8421DD0124A08
:10AB500005950492C02202926A4604AB82CB82C25F
:10AB600023002A006146FFF78DFFC022094B0A49E6
:10AB7000186802926A46069106AB079582CB82C29C
:10AB800023002A003100FFF77DFF200009B0F0BD4F
:10AB9000BC6802000C2500203544020030B50024BA
:10ABA00003730123034D84710560818082734373B5
:10ABB000846030BDB867020070B583790400DB079C
:10ABC00002D580680BF0D3FBA3799B0702D5A06860
:10ABD0000BF0CDFBA3795B0707D5A0230021144A16
:10ABE000DB00D150A0680BF0C2FBA3791B0708D58E
:10ABF000A568002D05D028000AF0CBF828000BF03E
:10AC0000B6FBA379DB0605D5A068002802D003684F
:10AC1000DB6898476023A2791A4205D0A068002813
:10AC200002D003685B6898470023A360A37170BDDE
:10AC300000700040F7B50227037B04000D003B4283
:10AC400026D0012926D886793E40009614D1FFF7F8
:10AC5000B3FF18200BF096FB0E230600E3561822D4
:10AC6000009901930BF0DDFB019930000BF01EFA07
:10AC7000A379A6603B43A371A3685A68002D04D052
:10AC80000025DB681A602800FEBD1B691A60FAE720
:10AC9000014DF8E7014DF6E716FCFFFF17FCFFFF3B
:10ACA000F7B50126037B040033422AD0612385795E
:10ACB0001D4017D1FFF780FF18200BF063FB0E2318
:10ACC0000700E35618220093637B290001930BF0E1
:10ACD000A8FB019A009938000BF0D6F9A379A76078
:10ACE0003343A3716023A279A0681A4202D00BF00B
:10ACF00077F8FEBD436940681B681840431E9841C1
:10AD0000F7E70148F5E7C04616FCFFFF10B5012440
:10AD1000837941731C4004D080680BF046FA002010
:10AD200010BD6022134203D080680BF060F8F6E794
:10AD30000048F5E716FCFFFF70B5040000250C4B3A
:10AD40000E0008338580857103602100183009F0FA
:10AD500022FC20002100203009F040FC054BA68099
:10AD6000E5802572E5602561656120001C6070BD8D
:10AD7000CC680200202500208379DB0702D5C16062
:10AD8000002070470048FCE716FCFFFF8379DB07D3
:10AD900001D5C06870470148FCE7C04616FCFFFFBC
:10ADA00070B545690400002D22D0037A032B21D809
:10ADB000FFF7ECFFA8622C200BF0E4FA2C22002114
:10ADC00005000BF02EFB002263695A62236993424F
:10ADD00008D1636923610020237A656101332372FE
:10ADE00070BD13005A6A002AFBD162695A62F2E709
:10ADF0000148F5E70148F3E717FCFFFF13FCFFFFED
:10AE0000144B70B55A68144C002A03D000225A60C3
:10AE10000132A2601A69002A17D00021196180232B
:10AE2000DB000E4DE3582868012B0FD1A923DB006E
:10AE3000E1584942FFF7A0FF2868FFF7B1FF2B68F0
:10AE40005A69074BE2500123A36070BDFFF794FFDE
:10AE5000F9E7C046FC10004000100040202500200B
:10AE60000405000003000069002809D00221054AFA
:10AE7000D167426A1A611A7A013A1A72024B196052
:10AE80007047C04604E100E000E100E010B5002991
:10AE900003DB024B19600AF0EEFF10BD24250020F1
:10AEA00070B504001E0004AB1D7805F0ADF820005D
:10AEB0000E4B40302360FEF70BFA230001364C3373
:10AEC000013522001E701D730023E1214E32A36460
:10AED0006365138053809381D381013B20006364B9
:10AEE0004902FFF7D3FF200070BDC046486602004C
:10AEF000F7B580277F053D697C690822113C6C43CA
:10AF00000600210068460BF070FA104B009A9A4236
:10AF100019D00093002301937969300013396943F4
:10AF200009F071FB019A0099300009F084FB2100BF
:10AF3000300009F068FB7969AB08133969432200D6
:10AF4000300009F06AFB0198FEBDC046FECA000051
:10AF5000F0B50D00A9B00D9200213022060010A816
:10AF60000B930BF05EFA28000BF0A9FA431C0C932C
:10AF7000102B00D9B5E00B9B202B00D9B1E02900A4
:10AF8000300009F085FB071E50D129000C9A10A84B
:10AF90000BF02BFA0D990B9A14A80BF026FA8023CC
:10AFA0005B051A695F690C92113F7A4330005D6955
:10AFB0000B92FFF79DFF3022002104001CA80BF02C
:10AFC00030FA290000270C9B13395943300009F04F
:10AFD0001AFB0D9730257D430B9B0833ED18A742D4
:10AFE00042DA290030221CA80BF0FFF910A91CA896
:10AFF0000BF05BFA002827D13C49300022000E916B
:10B000000F9409F018FB6A46099513AB23CB23C2B2
:10B0100023CB23C223CB23C23000129B1099119A59
:10B0200009F017FB01230D930137D3E710300B9A7A
:10B030000D990BF0CBF9040038000BF098F9002CB7
:10B04000A3D1200029B0F0BD6A4609951FAB23CBE0
:10B0500023C223CB23C223CB23C230001C991D9AC9
:10B060001E9B09F0F6FADFE7E5433023ED17254094
:10B070005D430B9B08355D190D9B002B1DD10C9B6F
:10B080003021981E05F078FDA0422CD017490134DC
:10B09000300022000E910F9409F0CDFA6A4609950E
:10B0A00013AB23CB23C223CB23C223CB23C2300039
:10B0B0001099119A129B09F0CCFA0B99300009F003
:10B0C000A2FA80235B0559690C230C9A1339634358
:10B0D0004A430233110030000B9A09F09EFA002413
:10B0E000AFE7034CADE7034CABE7C046FECA000038
:10B0F00017FCFFFF13FCFFFF8023F0B55B051A6907
:10B1000095B003925A6905910399113A51435D69CB
:10B11000039B133D040002915D43FFF7E9FE061E09
:10B120003BD0002730220021083508A801950BF0FC
:10B1300078F90199200009F066FA049730237B43DF
:10B14000029D0835ED18B7421FDA2900302208A801
:10B150000BF04BF9059908A80BF0A7F900280AD1C4
:10B160001949721E20000691079209F064FA012322
:10B1700004930137E2E70C23019A2900200009F02B
:10B180004CFA019B30330193F3E7049B002B06D16B
:10B190000D493200200009F04EFA0C4812E00299E5
:10B1A000200009F030FA80235B0559690C23039ACB
:10B1B00013394A437343110020000233029A09F005
:10B1C0002CFA002015B0F0BDFECA00000CFCFFFFF9
:10B1D00070B50400A280FA22002308000C499200F6
:10B1E00008312160A3716061E260A3606382094954
:10B1F00009F04EFA051E09D001002000103102228C
:10B2000012300BF0F2F828000BF0B1F8200070BDFE
:10B21000E46802009275020030B50225837987B098
:10B2200004002B4204D1FDF74DFDA3791D43A57108
:10B23000200009F077FA00281CD06B46DD1C28009E
:10B2400009F067FA2B78002B17D001A809F05FFAF4
:10B250000321019AD3170B409B189B102382FDF703
:10B26000B9FFE368A18818180123A0601A0002A89A
:10B2700008F099F8002007B030BD0122064B1A6093
:10B28000064A51680029FCD000215160044A126826
:10B29000019201225A60DBE700C00040FCC0004080
:10B2A00008C50040022802D10122014B1A707047E4
:10B2B0000728002070B5064C05002378002B04D128
:10B2C000044801F0D3FF01232370280070BDC0465D
:10B2D00008280020A5B2010070B50C0007F061FE3F
:10B2E000002810D00023144DA40A2B70200009F070
:10B2F0002DFA002803D00A200AF050FFF6E72B7839
:10B30000002BFCD070BD02210C4B0D4A99508021BE
:10B31000C90008005D58002DFCD0A121C9005C5077
:10B3200019580029FCD0002199508021C9005A5891
:10B33000002AFCD0E6E7C0460728002000E00140D4
:10B3400004050000F8B50C0015001E0007F029FEEA
:10B35000002811D00023174F3B7032002900200035
:10B3600009F0F2F9002803D00A200AF017FFF4E7E9
:10B370003B78002BFCD0F8BD01210F480F4B8446D1
:10B3800019508021C9005A58002AFCD08027002279
:10B39000FF00964207DD910068586050D959002996
:10B3A000FCD00132F5E7002261465A50DA59002AF2
:10B3B000FCD0E0E7072800200405000000E0014081
:10B3C00008B4024B9C46443808BC60475147020011
:10B3D000FA21F8B50389C90004005943324809F03D
:10B3E0007DFCFA21890005F0C7FB304F2081A17A4E
:10B3F000380009F073FC23002600250022894C3315
:10B40000A072A0361A808C35317800232A22286851
:10B4100008F0E5FD002801D02548F8BD31781F234C
:10B420005B22286808F0DBFD0028F5D13178202365
:10B430005C22286808F0D3FD0028EDD13178012383
:10B440002C22286808F0CBFD0028E5D131780123B3
:10B450002D22286808F0C3FD0028DDD131780123B2
:10B460002E22286808F0BBFD0028D5D1A17A38002B
:10B4700009F02FFC3178C3B20E22286808F0AFFD26
:10B480000028C9D1FA21238989005943064809F0C7
:10B4900020FC01230343DBB231782A22286808F01C
:10B4A0009EFD0028B9D0B7E704690200FC680200DD
:10B4B0000EFCFFFF08B4024B9C46443808BC6047B2
:10B4C000D1B30100074B10B51A00040008323C3319
:10B4D00002604364443008F082F9200008F0B2F8BA
:10B4E000200010BD6469020008B4024B9C46443839
:10B4F00008BC6047C5B4010008B4024B9C46443800
:10B5000008BC60475B470200F0B5042583798BB027
:10B5100004002B4204D1FDF7D5FBA3791D43A5718F
:10B5200020009030FFF7BCFB0026B0420FD1230073
:10B53000A033197820000C2307AD00938C302B002A
:10B5400001220068FFF73AF9061E03D02C4E3000A6
:10B550000BB0F0BD0A2304AA9B182A785A706A78A7
:10B560001A700022985EAA785A70EA781A7000223F
:10B57000995E03912A795A706A791A7000229F5E47
:10B58000AA795A70EA791A7000215A5E04922A7ACE
:10B590005A706A7A1A7000215A5E0592AA7A5A7015
:10B5A000EA7A1F251A7000229B5EA27A03999C46B4
:10B5B000514349425043CB172B407A435B185B11F0
:10B5C000A361C3172B401818D3171D406423AD186F
:10B5D000059A5B425343A36764236146049A401172
:10B5E0005A434B43E2676D11221DE0612562200042
:10B5F000D36708F099F82000443008F0F7F8A6E780
:10B600000EFCFFFF08B4024B9C46443808BC604760
:10B6100009B50100F7B51E00040008AB1B88150032
:10B62000019309AB00911A8831000AAB1F88FEF71D
:10B6300007F820003A0031004430FEF755FA134B6A
:10B6400020001A003C336364230008322260009A11
:10B650008C331A60AB8890308380AB79019A837108
:10B660000B4B03210360AB6883602B7B03736B7B05
:10B670004373AB7B83732300A0331A80FFF746FB31
:10B680002000FFF7A5FE2000FEBDC0466469020051
:10B69000B8670200F8B5FA260189B60004007143C4
:10B6A000264809F01BFB310005F066FA244F208183
:10B6B000A17A380009F012FB2500A07258352978CC
:10B6C00000232A22606C08F08AFC002801D01D4863
:10B6D000F8BD297810232B22606C08F080FC00282C
:10B6E000F5D1297801232D22606C08F078FC002820
:10B6F000EDD1297801232E22606C08F070FC00281F
:10B70000E5D1A17A380009F0E4FA2978C3B20E2213
:10B71000606C08F064FC0028D9D121890748714386
:10B7200009F0D7FA01230343DBB229782A22606C9F
:10B7300008F055FC0028CBD0C9E7C046CC69020010
:10B74000C46902000EFCFFFF10B50400034B083370
:10B75000036007F077FF200010BDC0462C6A02008E
:10B760007FB50425837904002B4204D1FDF7AAFAA2
:10B77000A3791D43A57120004830FFF791FA0025F9
:10B78000A8420DD1230058331978062302AE009346
:10B7900001223300606CFFF711F8051E03D00D4D38
:10B7A000280004B070BD022300210420F356A27AC1
:10B7B000DB00715630565343C000C9005143424329
:10B7C0005B42A3612368E16122629B6A2000984783
:10B7D000E6E7C0460EFCFFFFF8B50400150006AA18
:10B7E000168807AA0F0012881900FDF729FF0F4BD2
:10B7F0006764083323602300AA8848339A80AA79B3
:10B8000020009A710A4AA264AA6822652A7B1A73E8
:10B810006A7B5A73AA7B9A730023A371230058335F
:10B820001E80FFF737FF2000F8BDC0462C6A0200DB
:10B83000B867020010B50400034B0833036007F03B
:10B84000CEFF200010BDC046C06A0200F0B5070060
:10B850005C3787B00400397800231022806C08F030
:10B86000BEFB0326002802D01F4807B0F0BD0F25FD
:10B8700002ABED180123397808220093A06C2B004D
:10B88000FEF79CFF184B9842EED02B78334203D042
:10B890006420FDF7B1FAEAE7FA262189134DB600D4
:10B8A0007143280009F01AFA310005F065F920818A
:10B8B0003978A0231122A06C08F091FB0028D3D185
:10B8C000A36C21890393714328003F7809F001FAA2
:10B8D00001231843C3B210223900039808F07FFBFC
:10B8E0000028C2D0C0E7C0460EFCFFFF606A02001D
:10B8F00070B50825837986B004002B4204D1FDF78A
:10B90000E1F9A3791D43A57120004C30FFF7C8F978
:10B91000061E0DD023005C331978062304AD009376
:10B9200001222B00A06CFEF749FF061E03D0134E28
:10B93000300006B070BD0E232A786B445A706A78C6
:10B9400020001A700022995E64224A43A263AA78FA
:10B950005A70EA781A700022995E6422524251436A
:10B960006163297959706979197000215B5E5A43C6
:10B970002368E2631B6A9847DAE7C0460EFCFFFFC4
:10B98000F8B50400150006AA168807AA0F00128849
:10B990001900FEF7A9F80D4BA764083323602300B4
:10B9A000AA884C339A80AA7920009A71084AE264E6
:10B9B000AA6862652A7B1A736A7B5A73AA7B1E8205
:10B9C0009A73FFF743FF2000F8BDC046C06A02002B
:10B9D000B8670200F7B5FA250189204FAD000400D1
:10B9E0006943380009F07AF9290005F0C5F8A17A11
:10B9F00020811B4809F072F92600636CA072009345
:10BA000021895836337869433800019309F061F988
:10BA100007230343DBB220220199009808F0DFFAE4
:10BA2000002801D00F48FEBD317810232222606C1F
:10BA300008F0D5FA0028F5D1A17A0948656C377865
:10BA400009F047F980235B420343DBB2232239002C
:10BA5000280008F0C4FA0028E5D0E3E7F46A020001
:10BA6000EC6A02000EFCFFFF10B50400034B083324
:10BA7000036007F0E7FD200010BDC046646B0200C4
:10BA8000F0B50425837985B004002B4204D1FDF77D
:10BA900019F9A3791D43A57120004830FFF700F97B
:10BAA000061E0DD0230058331978062302AD0093EB
:10BAB000A8222B00606CFEF781FE061E03D0144EF8
:10BAC000300005B0F0BD1F200023EA5ED31703400D
:10BAD0009B180222A95E5B11CA170240521804216A
:10BAE0006F5E5211F9170140C91949112B806A8004
:10BAF000A980A07A4343424341435B42E361236808
:10BB00005242A26121629B6A20009847D8E7C04652
:10BB10000EFCFFFFF8B50400150006AA168807AA58
:10BB20000F0012881900FDF78BFD0F4B6764083377
:10BB300023602300AA8848339A80AA7920009A714A
:10BB40000A4AA264AA6822652A7B1A736A7B5A731E
:10BB5000AA7B9A730023A371230058331E80FFF73A
:10BB600039FF2000F8BDC046646B0200B8670200D0
:10BB7000F7B5FA2504000189134EAD006943300082
:10BB800009F0ACF8290004F0F7FF2700A36C20812E
:10BB900000935C373B7881B269433000019309F030
:10BBA00098F86022C3B20199009808F018FA0028AA
:10BBB00001D00648FEBD397801236222A06C08F04E
:10BBC0000EFA0028F6D0F4E7986B02000EFCFFFF97
:10BBD00010B50400034B0833036007F000FE20009B
:10BBE00010BDC046C06B02007FB5082583790400F4
:10BBF0002B4204D1FDF766F8A3791D43A5712000FF
:10BC00004C30FFF74DF8051E0DD023005C3319783A
:10BC1000062302AE0093E8223300A06CFEF7CEFDAF
:10BC2000051E03D00B4D280004B070BD0223F25E48
:10BC300096235B425A4362630021725E20005343A5
:10BC4000A3630423F25E96235343E36323681B6AD2
:10BC50009847E8E70EFCFFFFF8B50400150006AAB8
:10BC6000168807AA0F0012881900FDF73DFF0D4B3B
:10BC7000A764083323602300AA884C339A80AA79EA
:10BC800020009A71084AE264AA6862652A7B1A73E6
:10BC90006A7B5A73AA7B1E829A73FFF769FF2000A2
:10BCA000F8BDC046C06B0200B867020010B50400C2
:10BCB000054B083303601C3007F0DAFA2000183017
:10BCC00007F0D6FA200010BDEC6B0200FF23F0B5A0
:10BCD0002C4D8DB02B700023040069460088009322
:10BCE00003F0F0FF002802D16B469B782B70264EA4
:10BCF0003368DB68002B07D1002320881A00190065
:10BD000008F09BFD0DB0F0BD2B78032BF4D81F4934
:10BD100001A8FDF7A3FA336801A9DE6804A807F0BB
:10BD2000FEFA04A9300008F0E6FC0027060004A88B
:10BD300007F09EFABE421ED031002022103104A826
:10BD40000AF053FB30000AF012FB297804ABC9005B
:10BD50005918082202A80AF048FB2088012308226B
:10BD600002A908F06AFD0137002804D12088084A9A
:10BD70000C2108F060FD01A807F07AFA002FBBD073
:10BD8000C0E7C04680200020342500202576020030
:10BD9000FFFF0000F0B5837991B004005B071BD56D
:10BDA000FDF718FA00232269801A9941994203D1BC
:10BDB000F423FF3398420FD9A068002808D0364BEF
:10BDC0001D8809F003F8036815221B6A29009847AB
:10BDD0000422A3799343A371A3799B0759D52F4DCF
:10BDE0002B68DB68002B50D02D4B1B78032B4CD8D5
:10BDF000294B2C491B8804A80193FDF72FFA2B68C7
:10BE000004A9DE6808A807F08AFA08A9300008F03B
:10BE100072FC070008A807F02BFA02AB9E1D08234E
:10BE20003200338006A9073B019808F008FD002F77
:10BE300008D039002022103108A80AF0D6FA3800BC
:10BE40000AF095FA164B32881B7806A9DE0008AB7B
:10BE50009E1930000AF0BAFA002813D0082206A969
:10BE600030000AF0C2FA2B6804A9DD6805A807F0C3
:10BE700056FA202308AA05A9280008F042FC05A8C4
:10BE800007F0F6F904A807F0F3F90222A379934327
:10BE9000A37111B0F0BDC046B027002034250020AA
:10BEA0008020002025760200F7B5089E05001529A0
:10BEB00022D8012007008F40244C27421CD0E97F64
:10BEC000CC181F2C41DC69183418A14210D800216D
:10BED000C8B2834204D9545C701884700131F7E70A
:10BEE00032789A183270EA7F9B18EB7700202CE0AA
:10BEF0000878C8540139E8E73478013CE4B2A34239
:10BF000008D10023D9B28C42F0D9D05CF1188870E6
:10BF10000133F7E7EF7F0120FF183F1B1F2F14DCD1
:10BF20000227A01C7F423618381B0190E87F2F188B
:10BF3000BE4204D23078019FF0550136F6E7041B6B
:10BF4000023CEC77280008F0C4FCFEBDFC00200099
:10BF5000F0B5040085B001930AAB1E880BAB1B78CB
:10BF6000451C02930EAB1B78170003930B7810222D
:10BF700003704B8A0131438228000AF036FA268387
:10BF800000260122019B67616383039BE68323777D
:10BF9000029B2000EB77A31CDA770C9B0C256362D5
:10BFA00023000D9A28331A705E709E702A003100AB
:10BFB0002C300AF036FA2000064BE663A3632A0011
:10BFC000310040300AF02DFA2000034B2665E3646F
:10BFD00005B0F0BD554802004748020070B50D009D
:10BFE00008F0F4FE04000368002D09D15B6998474E
:10BFF000FA2080006843074904F0BEFDE08070BD70
:10C000009B6898478542F3D2236820009B68984735
:10C010000500EDE771020000F0B507001600A1B0C1
:10C0200002C704006B4918A81D0008F099FC331ED4
:10C0300003D030000AF043FA83B2012204920022B6
:10C0400003920292023201920093320018A9380042
:10C05000FFF77EFF23006049583318A8079308F0C4
:10C060007FFC2B1E03D028000AF029FA83B201229C
:10C0700004920022039202920232019200932A005B
:10C0800018A90798FFF764FF23005449AC3318A898
:10C09000089308F065FC269B002B03D018000AF0DB
:10C0A0000EFA83B20122049200220392029202321B
:10C0B00001920093269A18A90898FFF749FF631C7C
:10C0C000FF33474918A8099308F04AFC279B002B27
:10C0D00003D018000AF0F3F983B20122049200227F
:10C0E000601C03920292023201920093279A18A9CF
:10C0F000FF30FFF72DFF23005533FF33394918A8D0
:10C10000099308F02DFC289B002B03D018000AF09F
:10C11000D6F983B2012204920022039202920232E3
:10C1200001920093289A18A90998FFF711FF23009C
:10C13000A933FF332C4918A80A9308F011FC299B56
:10C14000002B03D018000AF0BAF983B2012204923E
:10C15000002218AD03920292023201920093299AB2
:10C1600029000A98FFF7F4FE204B1B780B93002B55
:10C170002CD1079B12971393089B0DAF1493631C4C
:10C18000FF331593099B1A4916930A9B380017939E
:10C1900008F0E6FB1D2149203B7810222B707B8A9A
:10C1A00012AE6B8206ABC918C0180AF01EF906233E
:10C1B0002B750B9B2068AB83AE6108F00BFE036808
:10C1C00029001B6898470122084B1A70200021B0F3
:10C1D000F0BDC046292A0000242A0000252A0000BC
:10C1E000272A0000262A0000282A0000092800200B
:10C1F0000A18000070B5002504000B4B8580083339
:10C2000085710360C1601830FDF762F820001C30B2
:10C21000FDF75EF80123621CD377044AA5606561CF
:10C2200020001460A37170BDEC6B02003425002067
:10C23000FA2130B585B00500012302228900684645
:10C2400007F0B1F8074C2068002809D008F0C1FBBE
:10C250002988054B22681980022391790B43937139
:10C2600005B030BD34250020B027002010B50C00EB
:10C2700007290DD8806808F0A9FD064B19570368F7
:10C280005B6C9847431E9841034B4042184010BDD9
:10C290000248FCE71D76020016FCFFFF17FCFFFFBB
:10C2A000F0B5A44C0D00A544040007939AAB1B788D
:10C2B000A14909A804930692FCF7D0FF20002900A9
:10C2C0001C3007F034F8C020800000F0C5FF0820C3
:10C2D0000AF058F80600002100F0AEFE15ADA66089
:10C2E00000210C220EA80AF09CF82B000EAA83CA8B
:10C2F00083C3924B2900EB60002330002B6108F0D0
:10C300004EFDA06808F062FD08220021059016A8E5
:10C310000AF087F814200AF035F829000200884B4B
:10C320001593C8C9C8C2874B059EC3600023A436B5
:10C3300003613368002B00D0F5E03060A06808F09E
:10C3400049FD08220021060016A80AF06AF8142008
:10C350000AF018F87C4B1593030086CD86C37B4BFF
:10C36000C36000230361336B002B00D0DDE030633A
:10C37000A06808F02BFD08220021050016A80AF08D
:10C3800050F8142009F0FEFF714B15AE1593030011
:10C3900086CE86C36F4B9835C360002303612B683C
:10C3A000002B00D0C3E02860012504AB1B7C04AA4D
:10C3B0002B4308A92800137408F043FAA06808F07A
:10C3C0000DFD036864495B6A9847A06808F006FDA4
:10C3D000036862499B699847A06808F0FFFC002346
:10C3E00002680093166804992A00B047049B002B4A
:10C3F0000AD0200008F0F6FA032805DDA06808F04E
:10C40000EDFC0368DB6898470EA808F059FA2F2066
:10C4100004ABC01808F054FA362004ABC01808F07A
:10C420004FFA3D20042504ABC01808F049FA0EABC2
:10C430000A93A06804AB5D7708F0D0FC03680AA9F2
:10C440001B699847A06808F0C1FC03680AA95B6DE6
:10C450009847A06808F0BAFC03680021DB6D984794
:10C46000A06808F0B3FC036802219B6D9847002187
:10C470002000FFF7FBFE182009F084FFA16800F000
:10C4800055FA374B374A1B68A1680393364B15A8FA
:10C490001B6800260293354B0CAF1B680193069B6B
:10C4A0001B685B190093324B12681B68FFF7B4FDE1
:10C4B000302009F067FF079AA16800F0F7FAA0683A
:10C4C00008F084FC036839009B6A9847294BBE80BA
:10C4D000A0680C9308F07AFC03683900DB6A98477F
:10C4E0002900A06808F048FA099A09219378A06801
:10C4F000521908F054FAA06808F068FC322106715D
:10C50000A068FFF76BFD04AB1B7FB34204D0A068AB
:10C5100008F05CFC08F01AFA09A806F0A9FE9523B9
:10C520009B009D44F0BD036107E703611FE70361C2
:10C5300039E7C046ACFDFFFF0A77020063480200FE
:10C5400031C2010071480200CDBC01007F480200E9
:10C55000AD4802008D48020079C50100ADC501005B
:10C56000302500202C250020082000202825002030
:10C570000C2000200800100013B506226846FCF7C6
:10C580007DFE094B1C68002C0AD0694601A806F004
:10C59000C6FE200001A908F046FA01A806F068FED0
:10C5A000684606F065FE13BD34250020002373B5F0
:10C5B00001AE0C0031000500019303F083FB00285D
:10C5C00002D1B278064B1A70064B1868002806D0C4
:10C5D00061426141044BC9B21D8008F02CFA73BD61
:10C5E0008020002034250020B027002030B5284CC2
:10C5F000A9B06A220D000DA8210009F0F6FE0DA9D0
:10C6000003A8FCF799FE03A906A806F0FCFE012387
:10C610000193013BFF3B00930533FF33642206A9DE
:10C620002800FEF773F806A806F0E0FE21001922A4
:10C630006A3106A809F0D9FE05220024110006ABD4
:10C6400004A806F007FF04A905A806F0DCFE019483
:10C6500000942300220005A92800FDF79BFF05A8F0
:10C6600006F0C4FE21002800FEF77EF80534052000
:10C67000FCF7C2FBFF2CF5D1FA208000FCF7BCFBD5
:10C6800004A806F0B3FE03A806F0B0FE29B030BD42
:10C690009A750200F0B59C4B95B005921A68082374
:10C6A00004000391D16C06A80B43D3649749FCF7AF
:10C6B000D5FD974907A8FCF7D1FD220000250DAE56
:10C6C00030001C3206A906F041FE07AA310008A876
:10C6D00006F03CFE300006F0CBFD631CDD77A06861
:10C6E00008F074FB03680BAF5B699847300008F0F3
:10C6F000E7F82B2004ABC01808F0E2F8322004ABB6
:10C70000C01808F0DDF8392004ABC01808F0D8F8DC
:10C710008023DB00BB80A0680B9608F057FB036802
:10C7200039005B6D9847A06808F050FB036829004A
:10C730009B6D9847A06808F049FB070006000A3780
:10C740001F222900380009F06CFEFD77300008F048
:10C75000F4F80621A06808F00FF9089A09219378E7
:10C76000A068043208F01BF9A06808F02FFBC8216C
:10C770000571A068FFF732FCA06808F027FBFF27CF
:10C780002E000581A06808F021FB08F0DFF803986F
:10C79000FDF704FE2000FCF795FA03992000FFF74F
:10C7A00025FF0399200008F059F9049501256369D4
:10C7B0001D402DD0574909A8FCF73CFE09A90AA83D
:10C7C00006F021FE00220AA91300019200920398AC
:10C7D000FDF7E0FE0AA806F009FE049B002B42D1FB
:10C7E000043F282F41DD0025FE2F00DC049D059825
:10C7F00006F0E1FF002806D0012362699A43130086
:10C80000042213436361002609A806F0EFFD049596
:10C8100004226369134233D0FF210398C826FDF731
:10C82000A3FF0025B600A36902229B5EAB4222DD76
:10C83000200029B2183006F09FFD00230100039864
:10C840001A007430FCF746FE3000FCF7D5FA039866
:10C8500007F0B8FBC820FCF7CFFA02226369134245
:10C8600009D10135DFE70437BBE7039807F0AAFBDE
:10C87000002FBCDDBAE7FA208000FCF7BDFA0026E5
:10C88000022365691D421CD006331D4024D0224975
:10C8900009A8FCF7CFFD09A90AA806F0B4FD0022FB
:10C8A0000AA90192009213000398FDF773FE0AA8EB
:10C8B00006F09CFD1948FCF79FFA09A806F096FDC2
:10C8C000174E6420FCF798FA164B01369E4200DCA6
:10C8D0006CE706F078FB69E7134909A8FCF7AAFDA5
:10C8E00009A90AA806F08FFD2B002A000AA90195C4
:10C8F00000950398FDF74EFE0AA806F077FD09A8FB
:10C9000006F074FDDDE7C046B82400203176020051
:10C91000417602004376020088760200983A0000D1
:10C920008C0A00008B0A0000C57602000022594BD9
:10C93000F0B50833060003600F001000A9B0B16025
:10C940000BAB991801324870102AFAD10F3A524CA9
:10C950001A700E32105D991A0874013AFAD2997B56
:10C960005A7B09020A4331000C31039125211B78BF
:10C9700013AD2B7002ABC918452302A81B186A829D
:10C980001800102209F031FD039B64216B61012323
:10C99000002402AA2B7752181993093313701DAB88
:10C9A0001C706D2302AA9B181C706E2321009B181B
:10C9B0001EA80C22EC836C621C7009F032FD374B10
:10C9C0000C22210023A8AB63EC6309F02AFD344B51
:10C9D00002AAEB6446239B180322DA7722002C6517
:10C9E0000595347306AD2B1901345A70102CFAD109
:10C9F00001232C482B700E33195CEA1A1174013B89
:10CA0000FAD211212520AA7B6B7B12020BAC1343B7
:10CA10002A78638202ABC9182270C018102209F06C
:10CA2000E4FC0123237505ABA36100233800A38335
:10CA300008F0D0F9036821001B68984713ABDB8B23
:10CA4000B068B38208F0C6F9002203680092B18A88
:10CA5000039ADC680123A047B06808F0BBF907001F
:10CA6000142009F08FFC00220123040002610692C9
:10CA700040C008322900079309F0B7FC0A4BE36075
:10CA8000BB69002B03D13000BC6129B0F0BD23612C
:10CA9000F9E7C046046C02001E7702005548020008
:10CAA000474802002E770200BD4A0200F0B500267A
:10CAB0000400724BDDB0083303608160C260868081
:10CAC000867132006E4947A808F098F823001433A5
:10CAD0000125042708931223009704950193089ACF
:10CAE000330047A9039602961DA8FFF731FA3200DA
:10CAF000644947A808F082F80C23220000971032FE
:10CB000015AF0495019347A933000396029632A806
:10CB1000FFF71EFA32005C49380008F06FF8210078
:10CB20001C310991042308210495019100933900D7
:10CB30003300099A0396029647A8FFF709FA3200D4
:10CB40005249380008F05AF8542009F01BFC210023
:10CB500012220423183107910495019200930A00D0
:10CB600033003900039602960690FFF7F1F9069A12
:10CB7000474B1000A262D4620AA9082230300A93FF
:10CB80000B9609F032FC434B069A099993632932BC
:10CB9000157026610422E661079809F026FC04223C
:10CBA0000799089809F021FC6622032304A952186A
:10CBB000D377BA225218D377872252005218D377EC
:10CBC000069A35490232D3771DAA0C9232AA0D92E9
:10CBD00047AA0E92069AA6850F9210A8320008F076
:10CBE0000DF83021452004AA52181378123104AAF6
:10CBF0003B705218138811397B8204AB1022C9187C
:10CC0000C01809F0F2FB04230CADA0683B75BD61B0
:10CC1000BE8308F0DFF8036839001B68984782225A
:10CC200004AB9B181B885432238404AB9B181B88CD
:10CC30005432A38404AB9B181B88A068638408F05B
:10CC4000C9F80700142009F09DFB0500134B06618D
:10CC5000082210C010A91093119609F0C6FB104BC2
:10CC6000EB60BB69B34206D1BD612000FCF72AF836
:10CC700020005DB0F0BD2B61F6E7C046106C0200ED
:10CC80005E7702003E7702004E7702006E77020068
:10CC9000CF4B02003B4B02007E7702000DCD01001E
:10CCA000654B0200F0B504000E00150085B01F00B2
:10CCB0000CAB1B881030019306F06BFB268065805F
:10CCC000182009F05FFB02AE050033000AAA03CA70
:10CCD00003C32F602800082700213A000C3009F018
:10CCE000A0FB3A003100281D09F07FFB064B022211
:10CCF0006B61200000230199A5600A43E360A280D4
:10CD00002362636205B0F0BD8F4B0200F0B50B8962
:10CD10008DB00593CB68050004934B88828C9A42B2
:10CD20000ED1049C049B059A9B181B1B032B39DD19
:10CD300062882188012308A806F035FB0434F1E756
:10CD4000428C9A422ED1049C049B059A9B181B1B73
:10CD5000032B27DD2388282006936388EF68079339
:10CD6000114B08930023099309F00CFBC0236A467A
:10CD70000600029308AB03CB03C22B000699079A67
:10CD80003000FFF78FFF3B6831005B683800984741
:10CD9000002805D0300006F021FA300009F0E7FA4B
:10CDA0000434D1E70DB0F0BD4D4C020070B5040065
:10CDB00090B0806807F045FF022101401AD1A38D91
:10CDC000002B17D00C4B6A4604931023E568A1850D
:10CDD0000591029304AB41CB41C20A00230006A88F
:10CDE000FFF760FF2B6806A99B682800984706A8F4
:10CDF00006F0F4F910B070BD4D4C0200002815D0BB
:10CE0000006041608260C360046145618661C76102
:10CE1000444604624C464462544684625C46C462A2
:10CE2000644604636E46466374468463002A06D0F3
:10CE3000C46B043C043A25681560B442F9D18C6B8C
:10CE4000A6464E6BB546002B06D0CC6B043C043B8B
:10CE50001D682560B442F9D10C6BA446CC6AA34688
:10CE60008C6AA2464C6AA1460C6AA046CF698E69BC
:10CE70004D690C69CB688A6808684968704700602A
:10CE800041608260C360046145618661C761444658
:10CE900004624C464462544684625C46C462644602
:10CEA00004636E46466374468463C46B043C043971
:10CEB00025680D60B442F9D1C7698669456904697E
:10CEC0007047006041608260C360046145618661B3
:10CED000C761444604624C464462544684625C46E0
:10CEE000C462644604636C464463744684630469A4
:10CEF0007047846BA646446BA546046BA446C46A7F
:10CF0000A346846AA246446AA146046AA046C76949
:10CF1000866945690469C36882680068416870472A
:10CF200010B5041E0CD009F0CAFA431EE3189C4247
:10CF300008D222781978013B21705A700134F6E743
:10CF4000014810BD0020FCE717FCFFFFF0B585B0DD
:10CF500002900C1E2AD00023C217161A56400193C5
:10CF6000019B30005D1C63190A215F1E039303F0CF
:10CF700073FF49423031397030000A2103F086FED8
:10CF800047420600002F0FD1029B002B04DA2D230D
:10CF9000019D039A02351370002320006355FFF7AB
:10CFA000BFFF380005B0F0BD0195D9E7004FF8E7A5
:10CFB00017FCFFFF0268084B406810B5C018C0009E
:10CFC000101803009A4205D81C688C4202D318003E
:10CFD000083BF7E710BDC046FFFFFF1F70B50028F4
:10CFE00017D1114D2E68002E11D1083009F0CAF961
:10CFF000066046600D4E04003368002B02D108F035
:10D00000BEFA306023682C609B00F3586360286888
:10D0100070BD0122064907480B681340F8D1026031
:10D0200043600A60F4E7C0463C2500204825002004
:10D030003825002040250020002370B50400016041
:10D04000436099420AD1064D2B68002B02D108F0AB
:10D0500096FA286023689B00EB586360200070BD3F
:10D0600048250020436810B50400002B02D1044875
:10D0700008F0DCFF606803681B69984710BDC04674
:10D080008E770200436810B50400002B02D10448DB
:10D0900008F0CCFF606803689B69984710BDC046E4
:10D0A0008E770200436810B50400002B02D10448BB
:10D0B00008F0BCFF606803685B6A984710BDC04613
:10D0C0008E77020010B5040001F000FE034B1B68D0
:10D0D000002B01D02000984710BDC04650250020ED
:10D0E000F0B58BB0050002F02DFC002000F072FDC1
:10D0F000036807001B6998473B6804009B69380078
:10D1000098473B6806005B6A380098470300288808
:10D1100010380B2861D803F025FD063D6060605A89
:10D12000606060666078AF882000390008F004F81D
:10D1300022006B7B583201931378A8799C46022316
:10D1400061460B43137004AB1F80012304AA937044
:10D150001300D070019AE91D9A722B000622163333
:10D1600005A8099309F041F929000B2004AB062218
:10D170000E31C01809F039F994346368A360A068CF
:10D1800000282AD0C36804A99847A368002BF4D0CC
:10D190001B69F3E720002F49AF8807F0CDFF22007D
:10D1A000022058321378A9798343137004AB1F808F
:10D1B0009970A0346368A360A06800280DD0C3688C
:10D1C00004A99847A368002BF4D01B69F3E75B69B7
:10D1D000A888A91D002B00D098472900300008F02E
:10D1E00024FB0BB0F0BD636E002BF6D0AF79A366C5
:10D1F000A06E0028F1D0C36839009847A36E002BB9
:10D2000001D1636EF3E71B69F1E7012269460D273F
:10D21000AB7BEF571A4001925A07920FDB080A7254
:10D220000B730622E91D04A809F0DFF8019A04AB8C
:10D23000DA716A46127A9F711A726A46127B20006E
:10D240005A722B000F3307938C348030236804A963
:10D250009847C2E7FFFF00000723D72802D9024BF7
:10D2600018600023180070474C250020014B1860FF
:10D270007047C046502500201FB58022A323D20549
:10D28000DB00D3580820DB0700D405301C4B4822B4
:10D290001C4902F0AFFD00280AD080B2002807D157
:10D2A000BFF34F8F184B194ADA60BFF34F8FFEE779
:10D2B000002302A8029301330370154B1B684360DF
:10D2C00007F094FD002802D0072005B000BD684695
:10D2D00007F08AFD0028F7D1694607F083FD002892
:10D2E000F2D10C4802F0B6FD80B20028EDD10A4818
:10D2F00002F0BAFD80B20028E7D100F01FF8E4E7A1
:10D30000F14D02005425002000ED00E00400FA0574
:10D310004C250020E1D00100C5D0010080B20028DA
:10D3200007D1BFF34F8F034B034ADA60BFF34F8F30
:10D33000FEE7704700ED00E00400FA051FB500238A
:10D3400002ACA380104B01A80293C8235B00E380CA
:10D35000803BFF3B037005220C4907F055FD80B26E
:10D3600000280FD18020800007F04AFD80B20028FD
:10D3700008D1200007F046FD80B2002802D107F056
:10D380003DFD80B204B010BD28009001B1770200CD
:10D39000024B0B60092313607047C046B777020049
:10D3A00010B50400002000F015FC03681B699847C5
:10D3B0000300F3331C7086235B00C0500300002180
:10D3C000044AFC335A61044A99615A62F43008F005
:10D3D00078FD10BDF54F020007500200012110B585
:10D3E000044A080002F06CFD0023984200D00B3381
:10D3F000180010BDA1D30100F8B505000400AC353C
:10D400006B68AB60A868002807D0C3682100984704
:10D41000AB68002BF4D01B69F3E72600B036356803
:10D42000002D05D02F69280008F0A1FF3D00F7E787
:10D430002200FC2135605832137826000B4013700F
:10D4400023000A365C331D701F222900300008F0CB
:10D45000E8FFF5772A361F222900300008F0E1FFA7
:10D46000F577606E002804D0056908F080FF280079
:10D47000F8E72500983560662868002804D006691A
:10D4800008F075FF3000F8E72600A43628603568FC
:10D49000002D05D02F69280008F069FF3D00F7E74F
:10D4A0002000356029000C226C3008F0BAFF200003
:10D4B000074BE567A36729000C22803008F0B1FF15
:10D4C0002300044A8C33903428001A602560F8BD8C
:10D4D000E74F0200D94F0200F0B593B00190002051
:10D4E0000C0000F077FB03685B6A984700F0EEFDE4
:10D4F00006AB00280ED000221A7105AA0692082257
:10D5000018001A730AAA9A6000F0AEFE002803D031
:10D5100013B0F0BD18711873002727732771019B92
:10D52000BA331B78BB4242D907237B431A000199C7
:10D53000BB32CB18BB331B788A180292022B2ED138
:10D54000002506AE337BAB4223D9AB000393089B87
:10D55000AA009958029808F082FA00281CD0B368F3
:10D560009C46AB001900237B614402939A00086833
:10D57000A368D050029B01332373337B5A1E95421C
:10D5800005D00C481B1860469B001B580B6006AB6F
:10D590001A730137FFB2C2E70135EDB2D1E7237943
:10D5A000216802989A00013350502371F1E700205E
:10D5B000AEE7C046FFFFFF3FF0B50A7804009BB01E
:10D5C0000D000220012A08D04B88032A07D1A03B76
:10D5D00021499BB210008B4207D91BB0F0BD203B04
:10D5E0001E4A9BB203209342F7D81D4BAA88032002
:10D5F0009A42F2D80AAB009312AB02936A46002318
:10D60000260013711373B8363378002B1DD104AF85
:10D6100018220021380008F004FF2B7838003B70F6
:10D6200033783B726B46FB606B883B82AB887B82B6
:10D6300007F0F6FB02000320002ACED10123583464
:10D64000217810000B432370C7E769462000FFF7DD
:10D6500043FF0028DBD0C0E7603F0000E03F000050
:10D66000FF3F0000F0B59DB01E006B4604001A702D
:10D67000581C0622229D08F0B8FE002E2ED03288BB
:10D6800002AB1A8072885A80B2889A80F288DA8057
:10D690000CAB04AE049314ABB36027000023B9377E
:10D6A000337133733B78002B1ED101223B78022764
:10D6B00008A9134058000B784E60BB430343002D6C
:10D6C0001AD12000323000789343104003430B708E
:10D6D000A38D0B81E38D4B81238E17E01A4B0293B0
:10D6E00096239B040393D3E731002000FFF7F4FE59
:10D6F0000028DAD01DB0F0BDA87993431040034351
:10D700000B702B880B816B884B81AB8802AA684613
:10D710008B8107F09BFB030000208342EAD0063098
:10D72000082BE7D006D80130042BE3D0834209D17F
:10D730000420DFE70520112BDCD0044A9342F7D008
:10D74000102BF5D00B20D5E7320064000232000028
:10D7500000487047FFFF0000F0B597B005930368DD
:10D7600007AD1B680491039311002B00060091C9BB
:10D7700091C30024D36821000C220CA8EB602C611B
:10D7800008F04FFE22000B4B10940F9311AB1C704E
:10D79000191901344A70102CFAD15A820193059B51
:10D7A0002A00009304990CAB3000039CA04717B0EB
:10D7B000F0BDC0463752020070B5FC30046C050065
:10D7C000002C0DD1242008F0DDFD064B4460836160
:10D7D000054B8460C46004614461C46103602864D3
:10D7E000286C70BD886D0200706E020070B5FC3050
:10D7F000C56B0400002D11D1342008F0C3FD084B87
:10D8000085604360074B45610361074B0562C36157
:10D81000064BC5628362064BE0630360E06B70BD3C
:10D82000B86D0200A86D0200186E0200286E02009A
:10D83000386E02007FB503791548002B22D0154EB3
:10D84000154C33782000002B1CD102AD280007F0C6
:10D85000DDFC002810D16B88592B0DD12B78AA88BC
:10D86000D91F012910D800920C4A2021200005F070
:10D8700001F80123337004E020220949200008F058
:10D8800025FE200004B070BD0092064AEDE7C046B8
:10D89000C07702002A2800200A280020E277020030
:10D8A000DA770200FF77020010B50400024B08C0CF
:10D8B00007F07EFD200010BDA86D020010B5040029
:10D8C000024B08C007F089FD200010BDB86D0200B2
:10D8D000064B70B5040003604068002804D0056959
:10D8E00008F045FD2800F8E7200070BD986D0200A3
:10D8F000064B70B5040003604068002804D0056939
:10D9000008F035FD2800F8E7200070BDC86D020062
:10D91000064B70B5040003604068002804D0056918
:10D9200008F025FD2800F8E7200070BDD86D020042
:10D93000064B70B5040003604068002804D00569F8
:10D9400008F015FD2800F8E7200070BD186E0200F1
:10D95000064B70B5040003604068002804D00569D8
:10D9600008F005FD2800F8E7200070BD286E0200D1
:10D97000064B70B5040003604068002804D00569B8
:10D9800008F0F5FC2800F8E7200070BDBC6C020030
:10D99000064B70B5040003604068002804D0056998
:10D9A00008F0E5FC2800F8E7200070BDCC6C020010
:10D9B000064B70B5040003604068002804D0056978
:10D9C00008F0D5FC2800F8E7200070BDDC6C0200F0
:10D9D000064B70B5040003604068002804D0056958
:10D9E00008F0C5FC2800F8E7200070BDEC6C0200D0
:10D9F000064B70B5040003604068002804D0056938
:10DA000008F0B5FC2800F8E7200070BD886D020022
:10DA100070B5FC30046C0500002C0DD1242008F0FA
:10DA2000B1FC064B44608361054B8460C4600461B3
:10DA30004461C46103602864286C70BD886D020075
:10DA4000706E0200104B10B5083303600F4B0400DA
:10DA5000C36080230E4A5B00C250C018FCF774FB01
:10DA600020000C4BB830E360FFF7B2FF2000AC3071
:10DA7000FFF79EFF2000A030FFF78AFF20006C30E8
:10DA8000FFF776FF200010BD9C6E0200306C020094
:10DA9000B06F0200FC6C0200444AF0B50600C260A0
:10DAA000A022434B16360833036001000023428254
:10DAB0000400320085B003718360037483823531C2
:10DAC000137001329142FBD1802580222000AD00ED
:10DAD000D201F3773584110000933830002300F031
